:100000000C9446000C9465000C9465000C946500FB
:100010000C9465000C9465000C9465000C946500CC
:100020000C9465000C9465000C9465000C946500BC
:100030000C9465000C9465000C9465000C946500AC
:100040000C9465000C9465000C948C010C94650074
:100050000C9465000C9465000C9465000C9465008C
:100060000C9465000C9465000C9465000C9465007C
:100070000C9465000C9465000C94CC010C94650004
:100080000C9465000C9465000C94650011241FBE4F
:10009000CFEFD0E1DEBFCDBF11E0A0E0B1E0EEECEC
:1000A000F9E100E00BBF02C007900D92A632B10744
:1000B000D9F711E0A6E2B1E001C01D92AC3FB10753
:1000C000E1F70E94EB000C94E50C0C940000DF9328
:1000D000CF9300D000D0CDB7DEB79C838B838B81CC
:1000E0009C818330910521F085309105A9F01BC0DA
:1000F0001A8219820BC089819A81875D9E4FFC010B
:10010000108289819A8101969A83898389819A8153
:100110008233910584F307C01092260110922701C3
:100120001092280100000F900F900F900F90CF9128
:10013000DF910895DF93CF9300D0CDB7DEB79A83D8
:10014000898389819A818330910531F48AE990E02D
:1001500020E9FC01208300000F900F90CF91DF91E8
:100160000895DF93CF9300D0CDB7DEB79A8389830C
:1001700089819A818330910549F500D08DB79EB76A
:10018000019620E031E0FC01318320830E948D083C
:100190000F900F9000D000D08DB79EB7019624E04D
:1001A00031E0FC013183208329E231E0FC0133831B
:1001B00022830E948D080F900F900F900F9083E084
:1001C00090E00E9467001092260100000F900F90AF
:1001D000CF91DF9108950F931F93DF93CF93CDB706
:1001E000DEB72E970FB6F894DEBF0FBECDBF0E94CC
:1001F000B0020E94C40283E090E00E94670087E0A2
:1002000091E00E949F0880912601813021F483E0D3
:1002100090E00E94B10080E090E0A0E2B1E4898328
:100220009A83AB83BC8369817A818B819C8120E036
:1002300030E04AE755E40E949F04DC01CB018D8346
:100240009E83AF83B88711E06D817E818F81988511
:1002500020E030E040E85FE30E94F90588230CF0DD
:1002600010E0112329F081E090E09A87898746C049
:1002700011E06D817E818F81988520E03FEF4FE70F
:1002800057E40E94990518160CF010E0112361F153
:1002900069817A818B819C8120E030E040E251E4E9
:1002A0000E949F04DC01CB01BC01CD010E94CB0266
:1002B000DC01CB019A87898712C080E991E09C8795
:1002C0008B878B859C858C01C8010197F1F78C0188
:1002D0001C870B8789859A8501979A8789878985E5
:1002E0009A85009751F78FCF6D817E818F81988598
:1002F0000E94CB02DC01CB019A87898789859A8588
:100300009E878D878D859E858C01C8010197F1F7A9
:100310008C011E870D8777CF1F920F920FB60F9219
:1003200000905B000F9211242F933F934F935F93A4
:100330006F937F938F939F93AF93BF93EF93FF93AD
:10034000DF93CF93CDB7DEB78CE290E0FC018081E4
:100350008093F1018091F101882F90E0873691051B
:1003600029F483E090E00E949A000000CF91DF9191
:10037000FF91EF91BF91AF919F918F917F916F917D
:100380005F914F913F912F910F9000925B000F90E2
:100390000FBE0F901F9018951F920F920FB60F92DD
:1003A00000905B000F9211242F938F939F93EF93F4
:1003B000FF93DF93CF930F92CDB7DEB78CE990E038
:1003C000FC01808189838981843239F480912601FE
:1003D000882319F481E080932701809127018130DF
:1003E00039F580912801882F90E0875D9E4F298103
:1003F000FC012083809128018F5F809328018091E8
:100400002801853039F48981873421F01092280140
:100410001092270189818A3059F481E08093260166
:1004200010922701109228018AE990E0FC011082C5
:100430000F90CF91DF91FF91EF919F918F912F912D
:100440000F9000925B000F900FBE0F901F901895B9
:10045000DF93CF9300D00F92CDB7DEB789837B8334
:100460006A8389818A3039F42A813B818DE0B90120
:100470000E94280201C000008BE290E0FC01808114
:10048000882F90E0807290700097B1F38CE290E03A
:100490002981FC01208380E090E00F900F900F9065
:1004A000CF91DF910895DF93CF9300D0CDB7DEB722
:1004B0009A83898300008BE290E0FC01808188238D
:1004C000D4F78CE290E0FC018081882F90E00F90BF
:1004D0000F90CF91DF910895DF93CF93CDB7DEB723
:1004E0008AE290E0FC0110828BE290E0FC01108235
:1004F00085E990E026E0FC01208389E290E027E690
:10050000FC01208380E990E0FC0110828AE290E007
:1005100028E9FC012083CF91DF910895DF93CF93E9
:10052000CDB7DEB78AE990E0FC0110828BE990E05C
:10053000FC0110828DE990E026E0FC01208389E92E
:1005400090E027E6FC01208388E990E0FC0110821E
:100550008AE990E028E9FC012083CF91DF9108959A
:10056000DF93CF93CDB7DEB7F8940E946C020E9460
:100570008E0288E292E023E532E0B9010E9442084F
:100580007894CF91DF910895DF93CF93CDB7DEB705
:10059000CF91DF910895EF92FF920F931F937B010C
:1005A0008C0120E030E040E05FE40E94C90587FD57
:1005B00011C0C801B70120E030E040E05FE40E94D4
:1005C0006E040E9429069B01AC012050304040403F
:1005D000504806C0C801B7010E9429069B01AC0122
:1005E000B901CA011F910F91FF90EF900895A0E00B
:1005F000B0E0EDEFF2E00C940F08FC01EA0180811D
:10060000823008F438C1DB019C91923008F430C18B
:10061000843059F4943009F02EC1918111968C9157
:100620001197981709F021C126C1943009F420C10F
:100630009230B1F4823009F01EC1CA01AF0128E046
:10064000DA010D90AD01DC010D92CD012150C1F711
:10065000DB0111968C9111979181892389830AC1BD
:10066000823009F405C1C280D380DB0112966D90FF
:100670007C90139724813581468157811496ED90A3
:10068000FD900D911C911797C601861997095C0181
:1006900097FF04C0AA24BB24A81AB90AB0E2AB167B
:1006A000B1040CF061C0181619066CF53701480149
:1006B0000A2C04C096948794779467940A94D2F78E
:1006C00081E090E0A0E0B0E00A2C04C0880F991F00
:1006D000AA1FBB1F0A94D2F70197A109B1098E2165
:1006E0009F21A023B123EE24FF248701E3940097E8
:1006F000A105B10519F4EE24FF248701E628F728A7
:10070000082919293CC00097D1F1CA0CDB1C39011A
:100710004A010A2C04C096948794779467940A94AB
:10072000D2F781E090E0A0E0B0E00A2C04C0880F8E
:10073000991FAA1FBB1F0A94D2F70197A109B109FB
:1007400082239323A423B52321E030E040E050E04E
:100750000097A105B10519F420E030E0A901262990
:100760003729482959290BC06C147D0424F4EE2440
:10077000FF24870104C0630120E030E0A9018181EA
:10078000FB019181891709F445C0882349F0D801FC
:10079000C701821B930BA40BB50B9C01AD0104C0D8
:1007A0002E193F09400B510B57FD04C01982DB8203
:1007B000CA820BC081E08983DB82CA825095409552
:1007C000309521953F4F4F4F5F4F2C833D834E8394
:1007D0005F830DC0880F991FAA1FBB1F8C839D8349
:1007E000AE83BF838A819B8101979B838A838C819F
:1007F0009D81AE81BF819C01AD01215030404040C0
:1008000050402F3FEFEF3E07EFEF4E07EFE35E075D
:1008100008F30BC08983DB82CA822E0D3F1D401F67
:10082000511F2C833D834E835F8383E088832C811B
:100830003D814E815F8157FF1DC0DA01C901817082
:100840009070A070B0705695479537952795822B7C
:10085000932BA42BB52B8C839D83AE83BF838A817E
:100860009B8101969B838A8305C0E8E1F1E003C088
:10087000FB0101C0FE01CF01CDB7DEB7EEE00C9465
:100880002B08A0E2B0E0E7E4F4E00C9417086983D9
:100890007A838B839C832D833E834F83588789E0A3
:1008A000E82EF12CEC0EFD1ECE010196B7010E9440
:1008B00049078E010F5E1F4FCE010596B8010E94B9
:1008C0004907C701B801AE01475E5F4F0E94F702BA
:1008D0000E947B06A096E6E00C943308A0E2B0E00C
:1008E000E4E7F4E00C94170869837A838B839C8394
:1008F0002D833E834F8358878E01075F1F4FCE01A4
:100900000196B8010E94490791E1E92EF12CEC0E05
:10091000FD1ECE010596B7010E9449078A8991E024
:1009200089278A8BC801B701AE01475E5F4F0E94DD
:10093000F7020E947B06A096E6E00C943308A0E242
:10094000B0E0E5EAF4E00C940B0869837A838B83CA
:100950009C832D833E834F835887CE010196BE0131
:10096000675F7F4F0E944907CE010596BE016F5E0B
:100970007F4F0E9449079985923078F089898230AB
:10098000C0F0943019F4823041F4CBC0843019F4B3
:10099000923079F4C6C0923051F481E02A859A8968
:1009A000291709F480E08A87CE010996BCC08230FD
:1009B00051F481E02A859A89291709F480E08A8B0D
:1009C000CE014196B0C06D847E848F849888ED8876
:1009D000FE880F89188DE0E2F0E080E090E0DC0115
:1009E000AA24BB24650120E030E0A901B3016170B5
:1009F000707061157105D1F02E0D3F1D401F511F04
:100A000015012601280E391E4A1E5B1E81E090E06A
:100A1000A0E0B0E02E153F054007510718F080E038
:100A200090E0DC01820D931DA41DB51DAA0CBB1C1A
:100A3000CC1CDD1C17FF09C061E0262E312C412C97
:100A4000512CA228B328C428D528319749F0EE0CA0
:100A5000FF1C001F111F9694879477946794C6CF4C
:100A60006B897C89EB85FC856E0F7F1F6E5F7F4FE6
:100A70007C8F6B8F61E0EA857A89E71709F460E083
:100A80006A8F6B8D7C8D10C0FC01E170F070309727
:100A900029F056954795379527955068B695A795AF
:100AA000979587956F5F7F4FB7FDEECF0CC0880F8E
:100AB000991FAA1FBB1F57FD8160220F331F441FC0
:100AC000551F615070408030E0E09E07E0E0AE07C7
:100AD000E0E4BE0760F36B8F7C8F6FE7E62EF12CAE
:100AE000012D112DE822F9220A231B2360E4E616CA
:100AF000F1040105110561F487FD0AC021153105D6
:100B00004105510529F0805C9F4FAF4FBF4F807862
:100B10008D8F9E8FAF8FB8A383E0898FCE014996CA
:100B200002C088E191E00E947B06A096E2E10C946D
:100B30002708A8E1B0E0EFE9F5E00C941708698315
:100B40007A838B839C832D833E834F8358878E01CA
:100B5000075F1F4FCE010196B8010E94490781E14E
:100B6000E82EF12CEC0EFD1ECE010596B7010E9479
:100B700049078985823040F08989823028F0C80190
:100B8000B7010E94B20701C08FEF6896E6E00C94AF
:100B90003308A8E1B0E0EFECF5E00C9417086983A6
:100BA0007A838B839C832D833E834F8358878E016A
:100BB000075F1F4FCE010196B8010E94490781E1EE
:100BC000E82EF12CEC0EFD1ECE010596B7010E9419
:100BD00049078985823040F08989823028F0C80130
:100BE000B7010E94B20701C08FEF6896E6E00C944F
:100BF0003308A8E1B0E0EFEFF5E00C941708698343
:100C00007A838B839C832D833E834F8358878E0109
:100C1000075F1F4FCE010196B8010E94490781E18D
:100C2000E82EF12CEC0EFD1ECE010596B7010E94B8
:100C300049078985823040F08989823028F0C801CF
:100C4000B7010E94B20701C081E06896E6E00C940B
:100C50003308ACE0B0E0EFE2F6E00C941B086983E7
:100C60007A838B839C83CE010196BE016B5F7F4F9D
:100C70000E9449078D81823081F1823070F1843089
:100C800021F48E81882369F10AC02F81388537FDD0
:100C900024C06E812F3131053CF0662311F120E034
:100CA00030E040E050E821C08EE190E0821B930BE1
:100CB00029853A854B855C8504C0569547953795BF
:100CC00027958A95D2F7662381F050954095309507
:100CD00021953F4F4F4F5F4F08C020E030E0A90102
:100CE00004C02FEF3FEF4FEF5FE7B901CA012C9629
:100CF000E2E00C943708EF92FF920F931F93CF938B
:100D0000DF93FC0124813581468157816181808197
:100D1000823020F44061EFEFF0E0A3C0843009F4AA
:100D20009BC0823009F492C021153105410551055F
:100D300009F48FC00280F381E02D8FEFE238F807CD
:100D40000CF05AC0C2E8DFEFCE1BDF0BCA31D10571
:100D50006CF579018A010C2E04C016950795F7945D
:100D6000E7940A94D2F781E090E0A0E0B0E00C2E86
:100D700004C0880F991FAA1FBB1F0A94D2F70197BE
:100D8000A109B10982239323A423B52321E030E0F4
:100D900040E050E00097A105B10519F420E030E0F3
:100DA000A9012E293F29402B512B03C020E030E020
:100DB000A901DA01C9018F779070A070B0708034FA
:100DC0009105A105B10539F427FF09C0205C3F4F0B
:100DD0004F4F5F4F04C0215C3F4F4F4F5F4FE1E0EB
:100DE000F0E0203080E0380780E0480780E45807D2
:100DF00028F5E0E0F0E022C0E038F1056CF5E158BC
:100E0000FF4FDA01C9018F779070A070B070803405
:100E10009105A105B10539F427FF09C0205C3F4FBA
:100E20004F4F5F4F04C0215C3F4F4F4F5F4F57FF05
:100E300005C05695479537952795319687E0569585
:100E40004795379527958A95D1F70BC0E0E0F0E0FC
:100E500005C0E0E0F0E005C0EFEFF0E020E030E0BA
:100E6000A9018E2F879588278795942F9F7767955F
:100E700066276795E695E22EA92FA82BFE2FF62B65
:100E8000622F732F8A2F9F2FCDB7DEB7E6E00C9429
:100E90003308DC01FB012C9111963C9111971296BD
:100EA0008C911297482F4F7750E0982F991F9927D0
:100EB000991F13966C911397862F880F892B90E0BA
:100EC000661F6627661F6183009739F52115310576
:100ED0004105510511F482E029C082E89FEF938318
:100EE000828367E0220F331F441F551F6A95D1F795
:100EF00083E0808309C0220F331F441F551F828166
:100F00009381019793838283203080E0380780E0CB
:100F1000480780E4580778F320C08F3F910579F4A3
:100F2000211531054105510519F484E080830895A8
:100F300044FF03C081E0808310C010820EC08F5731
:100F400090409383828383E0808387E0220F331F66
:100F5000441F551F8A95D1F75064248335834683F7
:100F600057830895FC01DB019081923008F449C059
:100F70008C91823008F445C0943051F46181843002
:100F8000B1F511962C91119730E0261B310941C023
:100F9000843021F0923041F48230B1F111968C917D
:100FA00011978823A1F12DC06181823001F1119642
:100FB0008C9111976817D9F42281338112968D9103
:100FC0009C9113978217930794F028173907BCF068
:100FD000248135814681578114968D919D910D9084
:100FE000BC91A02D82179307A407B50718F46623B8
:100FF00041F00DC0281739074A075B0728F466231C
:1010000031F021E030E005C020E030E002C02FEFF9
:101010003FEFC90108952F923F924F925F926F92D6
:101020007F928F929F92AF92BF92CF92DF92EF9278
:10103000FF920F931F93CF93DF93CDB7DEB7CA1BF9
:10104000DB0B0FB6F894DEBF0FBECDBF09942A8824
:10105000398848885F846E847D848C849B84AA84CC
:10106000B984C884DF80EE80FD800C811B81AA8159
:10107000B981CE0FD11D0FB6F894DEBF0FBECDBF24
:10108000ED0108950F931F93CF93DF938C01EB0134
:10109000009711F42097C9F181E090E06EE070E0D4
:1010A0000E94E60AFC019C01009789F180E8838395
:1010B000209771F0D387C28781E883838091F20102
:1010C0009091F301009721F4F093F301E093F20182
:1010D00001151105E1F01187008783818260838308
:1010E0008091F4019091F501009789F4F093F50156
:1010F000E093F4018091F6019091F701009739F4A3
:10110000F093F701E093F60102C020E030E0C9015E
:10111000DF91CF911F910F910895DF93CF93CDB7BA
:10112000DEB7FE013596619171918091F401909145
:10113000F501AF010E94D608CF91DF910895EF929B
:10114000FF920F931F93CF93DF938C01E091F401F3
:10115000F091F501838181FF1FC0C0E0D0E00AC09B
:10116000DB011896ED91FC9119970995009711F004
:10117000CFEFDFEFF80181918F016091F401709161
:10118000F501882369F7DB011896ED91FC91199719
:101190008AE00995009711F0CFEFDFEFCE01DF91E4
:1011A000CF911F910F91FF90EF9008952F923F9252
:1011B0004F925F926F927F928F929F92AF92BF9267
:1011C000CF92DF92EF92FF920F931F93DF93CF9313
:1011D000CDB7DEB72C970FB6F894DEBF0FBECDBFEC
:1011E0006C011B018A01FC0117821682838181FF39
:1011F000D1C12E010894411C511CF6019381F101CB
:1012000093FD859193FF81911F01882309F4BEC14D
:10121000853239F493FD859193FF81911F018532C9
:1012200029F490E0B6010E945B0CE7CFEE24FF2486
:1012300020E02032B0F48B3269F08C3228F4803216
:1012400051F0833271F40BC08D3239F0803349F4A0
:1012500021602CC02260246029C0286027C0206142
:1012600025C027FD2CC0382F30533A3098F426FF84
:1012700008C08E2D880FE82EEE0CEE0CE80EE30E63
:1012800015C08F2D880FF82EFF0CFF0CF80EF30EF3
:1012900020620CC08E3221F426FD78C1206406C085
:1012A0008C3611F4206802C0883649F4F10193FDB0
:1012B000859193FF81911F01882309F0BACF982F60
:1012C0009554933018F09052933028F40C5F1F4FD0
:1012D000FFE3F9830DC0833631F0833771F0833536
:1012E00009F060C022C0F801808189830E5F1F4F22
:1012F000420171E0A72EB12C16C062E0662E712C5F
:10130000600E711EF8018080918026FF03C06E2D53
:1013100070E002C06FEF7FEFC4012C870E94500C79
:101320005C0183012C852F7717C052E0652E712C4C
:10133000600E711EF8018080918026FF03C06E2D23
:1013400070E002C06FEF7FEFC4012C870E943E0C5B
:101350005C012C852068830123FD20C008C080E249
:1013600090E0B6012C870E945B0CFA942C858F2D9F
:1013700090E0A816B90698F311C0F40127FD8591F5
:1013800027FF81914F0190E0B6012C870E945B0CF2
:101390002C85F110FA940894A108B108A114B104A5
:1013A00061F7F1C0843611F0893649F527FF08C08E
:1013B000F80160817181828193810C5F1F4F09C0A8
:1013C000F80160817181882777FD8095982F0E5FE5
:1013D0001F4F4FE6B42EB22297FF09C0909580951B
:1013E000709561957F4F8F4F9F4FF0E8BF2AA20104
:1013F0002AE030E00E94870C782E741845C08537AB
:1014000031F43FEEB32EB2222AE030E025C099EF4E
:10141000B92EB2228F36C1F0803720F4883509F01A
:10142000B5C00DC0803721F0883709F0AFC002C0C9
:1014300020E1B22AB4FE0BC084E0B82A08C0B4FE92
:1014400009C0E6E0BE2A06C028E030E005C020E181
:1014500030E002C020E132E0B7FE08C0F801608150
:101460007181828193810C5F1F4F07C0F8016081F9
:10147000718180E090E00E5F1F4FA2010E94870CF7
:10148000782E7418FFE7BF22B6FE0BC02EEFB222F3
:101490007E1438F4B4FE07C0B2FC05C08FEEB8224B
:1014A00002C0A72C01C0AE2C8B2D90E0B4FE0DC065
:1014B000FE01E70DF11D2081203319F4E9EEBE2273
:1014C00009C0A394B2FE06C004C08678907000974D
:1014D00009F0A3948B2C9924B3FC14C0B0FE0FC068
:1014E000AF1428F4E72CEF0CEA18AF2C08C0E72C57
:1014F00006C080E290E0B6010E945B0CA394AF149A
:10150000C0F304C0AF1410F4FA1801C0FF2484FE25
:101510000FC080E390E0B6010E945B0C82FE1FC00A
:1015200081FE03C088E590E010C088E790E00DC020
:10153000C40186789070009791F081FC02C080E22F
:1015400001C08BE2B7FC8DE290E0B6010E945B0C1B
:1015500006C080E390E0B6010E945B0CEA947E1422
:10156000C0F37A94F201E70DF11D808190E0B6019D
:101570000E945B0C7720A9F706C080E290E0B601DC
:101580000E945B0CFA94FF20C1F737CEF60126814A
:10159000378102C02FEF3FEFC9012C960FB6F894A8
:1015A000DEBF0FBECDBFCF91DF911F910F91FF9096
:1015B000EF90DF90CF90BF90AF909F908F907F90F3
:1015C0006F905F904F903F902F900895EF92FF9211
:1015D0000F931F93CF93DF93689F8001699F100D36
:1015E000789F100D1124C8010E940B0BE82EE70113
:1015F0007E01F92EE701209731F08E2D60E070E03A
:10160000A8010E94490CCE01DF91CF911F910F914B
:10161000FF90EF900895CF93DF938230910510F4FF
:1016200082E090E0E091FA01F091FB0140E050E0AF
:1016300020E030E026C06081718168177907E0F012
:101640006817790781F4828193812115310531F082
:10165000D90113969C938E9312972BC09093FB0104
:101660008093FA0126C04115510519F064177507DA
:1016700018F4AB01E901DF019F0172816381E72F5B
:10168000F62F3097C1F64115510501F1481B590B52
:101690004430510580F412968D919C9113972097B8
:1016A00019F09B838A8304C09093FB018093FA0115
:1016B000FD01329646C0FD01E40FF51F8193919321
:1016C0004250504011965C934E933BC02091F801DC
:1016D0003091F9012115310541F420912201309119
:1016E00023013093F9012093F801209124013091D6
:1016F00025012115310541F42DB73EB74091200158
:1017000050912101241B350BE091F801F091F90172
:10171000E217F307A0F42E1B3F0B2817390778F0C8
:10172000AC014E5F5F4F2417350748F04E0F5F1F27
:101730005093F9014093F8018193919302C0E0E046
:10174000F0E0CF01DF91CF910895CF93DF93009721
:1017500009F491C0FC013297138212826091FA0160
:101760007091FB016115710581F420813181280F91
:10177000391F8091F8019091F9018217930799F52B
:10178000F093F901E093F80176C0DB0180E090E08E
:1017900002C0CD01D901AE17BF0748F412962D91B2
:1017A0003C91139721153105A1F7CD0121C0B383D9
:1017B000A283EF01499159919E01240F351FA21771
:1017C000B30779F42D913C911197240F351F2E5FAB
:1017D0003F4F3183208312962D913C911397338391
:1017E0002283009729F4F093FB01E093FA0143C0B0
:1017F000DC011396FC93EE9312974D915D91A40F2B
:10180000B51FEA17FB0769F420813181240F351FCA
:101810002E5F3F4FEC0139832883228133813B8344
:101820002A83E0E0F0E002C0FB01BC01DB0112967C
:101830008D919C9113970097B9F79B012E5F3F4FB5
:101840008D919C911197820F931F4091F8015091B7
:10185000F9014817590779F4309729F41092FB01E0
:101860001092FA0102C0138212822250304030934B
:10187000F9012093F801DF91CF910895FC010590C3
:10188000615070400110D8F7809590958E0F9F1F82
:101890000895DC0101C06D9341505040E0F7089578
:1018A000FC016150704001900110D8F7809590952F
:1018B0008E0F9F1F08950F931F93CF93DF938C017B
:1018C000EB018B8181FF1BC082FF0DC02E813F8108
:1018D0008C819D812817390764F4E881F98101938F
:1018E000F983E88306C0E885F985802F099500977C
:1018F00031F48E819F8101969F838E8302C00FEF0A
:101900001FEFC801DF91CF911F910F910895FA0148
:10191000AA27283051F1203181F1E8946F936E7F2E
:101920006E5F7F4F8F4F9F4FAF4FB1E03ED0B4E01F
:101930003CD0670F781F891F9A1FA11D680F791F60
:101940008A1F911DA11D6A0F711D811D911DA11D71
:1019500020D009F468943F912AE0269F1124301981
:10196000305D3193DEF6CF010895462F4770405D1C
:101970004193B3E00FD0C9F7F6CF462F4F70405DCB
:101980004A3318F0495D31FD4052419302D0A9F726
:10199000EACFB4E0A6959795879577956795BA9520
:1019A000C9F700976105710508959B01AC010A2EE6
:1019B00006945795479537952795BA95C9F7620FBD
:0E19C000731F841F951FA01D0895F894FFCF7C
:1019CE0041412C00257300537461727420524620DD
:1019DE0042696379636C650000000000000000003E
:0619EE002000FC010000D6
:00000001FF
